{
  "_format": "hh-sol-artifact-1",
  "contractName": "BuffNFT",
  "sourceName": "contracts/BuffNFT.sol",
  "abi": [
    {
      "inputs": [],
      "stateMutability": "nonpayable",
      "type": "constructor"
    },
    {
      "anonymous": false,
      "inputs": [
        {
          "indexed": true,
          "internalType": "address",
          "name": "owner",
          "type": "address"
        },
        {
          "indexed": true,
          "internalType": "address",
          "name": "approved",
          "type": "address"
        },
        {
          "indexed": true,
          "internalType": "uint256",
          "name": "tokenId",
          "type": "uint256"
        }
      ],
      "name": "Approval",
      "type": "event"
    },
    {
      "anonymous": false,
      "inputs": [
        {
          "indexed": true,
          "internalType": "address",
          "name": "owner",
          "type": "address"
        },
        {
          "indexed": true,
          "internalType": "address",
          "name": "operator",
          "type": "address"
        },
        {
          "indexed": false,
          "internalType": "bool",
          "name": "approved",
          "type": "bool"
        }
      ],
      "name": "ApprovalForAll",
      "type": "event"
    },
    {
      "anonymous": false,
      "inputs": [
        {
          "indexed": true,
          "internalType": "address",
          "name": "previousOwner",
          "type": "address"
        },
        {
          "indexed": true,
          "internalType": "address",
          "name": "newOwner",
          "type": "address"
        }
      ],
      "name": "OwnershipTransferred",
      "type": "event"
    },
    {
      "anonymous": false,
      "inputs": [
        {
          "indexed": true,
          "internalType": "address",
          "name": "from",
          "type": "address"
        },
        {
          "indexed": true,
          "internalType": "address",
          "name": "to",
          "type": "address"
        },
        {
          "indexed": true,
          "internalType": "uint256",
          "name": "tokenId",
          "type": "uint256"
        }
      ],
      "name": "Transfer",
      "type": "event"
    },
    {
      "inputs": [
        {
          "internalType": "address[]",
          "name": "wAddresses",
          "type": "address[]"
        },
        {
          "internalType": "string[]",
          "name": "tokenUris",
          "type": "string[]"
        }
      ],
      "name": "airdropNFTs",
      "outputs": [],
      "stateMutability": "nonpayable",
      "type": "function"
    },
    {
      "inputs": [
        {
          "internalType": "address",
          "name": "to",
          "type": "address"
        },
        {
          "internalType": "uint256",
          "name": "tokenId",
          "type": "uint256"
        }
      ],
      "name": "approve",
      "outputs": [],
      "stateMutability": "nonpayable",
      "type": "function"
    },
    {
      "inputs": [
        {
          "internalType": "address",
          "name": "owner",
          "type": "address"
        }
      ],
      "name": "balanceOf",
      "outputs": [
        {
          "internalType": "uint256",
          "name": "",
          "type": "uint256"
        }
      ],
      "stateMutability": "view",
      "type": "function"
    },
    {
      "inputs": [
        {
          "internalType": "uint256",
          "name": "tokenId",
          "type": "uint256"
        }
      ],
      "name": "burn",
      "outputs": [],
      "stateMutability": "nonpayable",
      "type": "function"
    },
    {
      "inputs": [
        {
          "internalType": "uint256",
          "name": "tokenId",
          "type": "uint256"
        }
      ],
      "name": "getApproved",
      "outputs": [
        {
          "internalType": "address",
          "name": "",
          "type": "address"
        }
      ],
      "stateMutability": "view",
      "type": "function"
    },
    {
      "inputs": [
        {
          "internalType": "address",
          "name": "owner",
          "type": "address"
        },
        {
          "internalType": "address",
          "name": "operator",
          "type": "address"
        }
      ],
      "name": "isApprovedForAll",
      "outputs": [
        {
          "internalType": "bool",
          "name": "",
          "type": "bool"
        }
      ],
      "stateMutability": "view",
      "type": "function"
    },
    {
      "inputs": [],
      "name": "name",
      "outputs": [
        {
          "internalType": "string",
          "name": "",
          "type": "string"
        }
      ],
      "stateMutability": "view",
      "type": "function"
    },
    {
      "inputs": [],
      "name": "owner",
      "outputs": [
        {
          "internalType": "address",
          "name": "",
          "type": "address"
        }
      ],
      "stateMutability": "view",
      "type": "function"
    },
    {
      "inputs": [
        {
          "internalType": "uint256",
          "name": "tokenId",
          "type": "uint256"
        }
      ],
      "name": "ownerOf",
      "outputs": [
        {
          "internalType": "address",
          "name": "",
          "type": "address"
        }
      ],
      "stateMutability": "view",
      "type": "function"
    },
    {
      "inputs": [],
      "name": "renounceOwnership",
      "outputs": [],
      "stateMutability": "nonpayable",
      "type": "function"
    },
    {
      "inputs": [
        {
          "internalType": "address",
          "name": "from",
          "type": "address"
        },
        {
          "internalType": "address",
          "name": "to",
          "type": "address"
        },
        {
          "internalType": "uint256",
          "name": "tokenId",
          "type": "uint256"
        }
      ],
      "name": "safeTransferFrom",
      "outputs": [],
      "stateMutability": "nonpayable",
      "type": "function"
    },
    {
      "inputs": [
        {
          "internalType": "address",
          "name": "from",
          "type": "address"
        },
        {
          "internalType": "address",
          "name": "to",
          "type": "address"
        },
        {
          "internalType": "uint256",
          "name": "tokenId",
          "type": "uint256"
        },
        {
          "internalType": "bytes",
          "name": "data",
          "type": "bytes"
        }
      ],
      "name": "safeTransferFrom",
      "outputs": [],
      "stateMutability": "nonpayable",
      "type": "function"
    },
    {
      "inputs": [
        {
          "internalType": "address",
          "name": "operator",
          "type": "address"
        },
        {
          "internalType": "bool",
          "name": "approved",
          "type": "bool"
        }
      ],
      "name": "setApprovalForAll",
      "outputs": [],
      "stateMutability": "nonpayable",
      "type": "function"
    },
    {
      "inputs": [
        {
          "internalType": "bytes4",
          "name": "interfaceId",
          "type": "bytes4"
        }
      ],
      "name": "supportsInterface",
      "outputs": [
        {
          "internalType": "bool",
          "name": "",
          "type": "bool"
        }
      ],
      "stateMutability": "view",
      "type": "function"
    },
    {
      "inputs": [],
      "name": "symbol",
      "outputs": [
        {
          "internalType": "string",
          "name": "",
          "type": "string"
        }
      ],
      "stateMutability": "view",
      "type": "function"
    },
    {
      "inputs": [
        {
          "internalType": "uint256",
          "name": "index",
          "type": "uint256"
        }
      ],
      "name": "tokenByIndex",
      "outputs": [
        {
          "internalType": "uint256",
          "name": "",
          "type": "uint256"
        }
      ],
      "stateMutability": "view",
      "type": "function"
    },
    {
      "inputs": [
        {
          "internalType": "address",
          "name": "owner",
          "type": "address"
        },
        {
          "internalType": "uint256",
          "name": "index",
          "type": "uint256"
        }
      ],
      "name": "tokenOfOwnerByIndex",
      "outputs": [
        {
          "internalType": "uint256",
          "name": "",
          "type": "uint256"
        }
      ],
      "stateMutability": "view",
      "type": "function"
    },
    {
      "inputs": [
        {
          "internalType": "uint256",
          "name": "tokenId",
          "type": "uint256"
        }
      ],
      "name": "tokenURI",
      "outputs": [
        {
          "internalType": "string",
          "name": "",
          "type": "string"
        }
      ],
      "stateMutability": "view",
      "type": "function"
    },
    {
      "inputs": [],
      "name": "totalSupply",
      "outputs": [
        {
          "internalType": "uint256",
          "name": "",
          "type": "uint256"
        }
      ],
      "stateMutability": "view",
      "type": "function"
    },
    {
      "inputs": [
        {
          "internalType": "address",
          "name": "from",
          "type": "address"
        },
        {
          "internalType": "address",
          "name": "to",
          "type": "address"
        },
        {
          "internalType": "uint256",
          "name": "tokenId",
          "type": "uint256"
        }
      ],
      "name": "transferFrom",
      "outputs": [],
      "stateMutability": "nonpayable",
      "type": "function"
    },
    {
      "inputs": [
        {
          "internalType": "address",
          "name": "newOwner",
          "type": "address"
        }
      ],
      "name": "transferOwnership",
      "outputs": [],
      "stateMutability": "nonpayable",
      "type": "function"
    }
  ],
  "bytecode": "0x60806040523480156200001157600080fd5b506040518060400160405280600981526020017f42754666546f6b656e00000000000000000000000000000000000000000000008152506040518060400160405280600381526020017f4246540000000000000000000000000000000000000000000000000000000000815250816000908051906020019062000096929190620001a6565b508060019080519060200190620000af929190620001a6565b505050620000d2620000c6620000d860201b60201c565b620000e060201b60201c565b620002bb565b600033905090565b6000600b60009054906101000a900473ffffffffffffffffffffffffffffffffffffffff16905081600b60006101000a81548173ffffffffffffffffffffffffffffffffffffffff021916908373ffffffffffffffffffffffffffffffffffffffff1602179055508173ffffffffffffffffffffffffffffffffffffffff168173ffffffffffffffffffffffffffffffffffffffff167f8be0079c531659141344cd1fd0a4f28419497f9722a3daafe3b4186f6b6457e060405160405180910390a35050565b828054620001b49062000285565b90600052602060002090601f016020900481019282620001d8576000855562000224565b82601f10620001f357805160ff191683800117855562000224565b8280016001018555821562000224579182015b828111156200022357825182559160200191906001019062000206565b5b50905062000233919062000237565b5090565b5b808211156200025257600081600090555060010162000238565b5090565b7f4e487b7100000000000000000000000000000000000000000000000000000000600052602260045260246000fd5b600060028204905060018216806200029e57607f821691505b60208210811415620002b557620002b462000256565b5b50919050565b61381180620002cb6000396000f3fe608060405234801561001057600080fd5b50600436106101375760003560e01c80634f6ccce7116100b857806395d89b411161007c57806395d89b411461034c578063a22cb4651461036a578063b88d4fde14610386578063c87b56dd146103a2578063e985e9c5146103d2578063f2fde38b1461040257610137565b80634f6ccce7146102945780636352211e146102c457806370a08231146102f4578063715018a6146103245780638da5cb5b1461032e57610137565b806318160ddd116100ff57806318160ddd146101f257806323b872dd146102105780632f745c591461022c57806342842e0e1461025c57806342966c681461027857610137565b806301ffc9a71461013c57806306fdde031461016c578063081812fc1461018a578063095ea7b3146101ba57806316425e6a146101d6575b600080fd5b610156600480360381019061015191906124e4565b61041e565b604051610163919061252c565b60405180910390f35b610174610430565b60405161018191906125e0565b60405180910390f35b6101a4600480360381019061019f9190612638565b6104c2565b6040516101b191906126a6565b60405180910390f35b6101d460048036038101906101cf91906126ed565b610508565b005b6101f060048036038101906101eb91906127e8565b610620565b005b6101fa6106fa565b6040516102079190612878565b60405180910390f35b61022a60048036038101906102259190612893565b610707565b005b610246600480360381019061024191906126ed565b610767565b6040516102539190612878565b60405180910390f35b61027660048036038101906102719190612893565b61080c565b005b610292600480360381019061028d9190612638565b61082c565b005b6102ae60048036038101906102a99190612638565b610888565b6040516102bb9190612878565b60405180910390f35b6102de60048036038101906102d99190612638565b6108f9565b6040516102eb91906126a6565b60405180910390f35b61030e600480360381019061030991906128e6565b6109ab565b60405161031b9190612878565b60405180910390f35b61032c610a63565b005b610336610a77565b60405161034391906126a6565b60405180910390f35b610354610aa1565b60405161036191906125e0565b60405180910390f35b610384600480360381019061037f919061293f565b610b33565b005b6103a0600480360381019061039b9190612aaf565b610b49565b005b6103bc60048036038101906103b79190612638565b610bab565b6040516103c991906125e0565b60405180910390f35b6103ec60048036038101906103e79190612b32565b610bbd565b6040516103f9919061252c565b60405180910390f35b61041c600480360381019061041791906128e6565b610c51565b005b600061042982610cd5565b9050919050565b60606000805461043f90612ba1565b80601f016020809104026020016040519081016040528092919081815260200182805461046b90612ba1565b80156104b85780601f1061048d576101008083540402835291602001916104b8565b820191906000526020600020905b81548152906001019060200180831161049b57829003601f168201915b5050505050905090565b60006104cd82610d4f565b6004600083815260200190815260200160002060009054906101000a900473ffffffffffffffffffffffffffffffffffffffff169050919050565b6000610513826108f9565b90508073ffffffffffffffffffffffffffffffffffffffff168373ffffffffffffffffffffffffffffffffffffffff161415610584576040517f08c379a000000000000000000000000000000000000000000000000000000000815260040161057b90612c45565b60405180910390fd5b8073ffffffffffffffffffffffffffffffffffffffff166105a3610d9a565b73ffffffffffffffffffffffffffffffffffffffff1614806105d257506105d1816105cc610d9a565b610bbd565b5b610611576040517f08c379a000000000000000000000000000000000000000000000000000000000815260040161060890612cd7565b60405180910390fd5b61061b8383610da2565b505050565b610628610e5b565b81819050848490501461063a57600080fd5b60005b848490508110156106f3576106e085858381811061065e5761065d612cf7565b5b905060200201602081019061067391906128e6565b84848481811061068657610685612cf7565b5b90506020028101906106989190612d35565b8080601f016020809104026020016040519081016040528093929190818152602001838380828437600081840152601f19601f82011690508083019250505050505050610ed9565b80806106eb90612dc7565b91505061063d565b5050505050565b6000600880549050905090565b610718610712610d9a565b82610f0a565b610757576040517f08c379a000000000000000000000000000000000000000000000000000000000815260040161074e90612e82565b60405180910390fd5b610762838383610f9f565b505050565b6000610772836109ab565b82106107b3576040517f08c379a00000000000000000000000000000000000000000000000000000000081526004016107aa90612f14565b60405180910390fd5b600660008473ffffffffffffffffffffffffffffffffffffffff1673ffffffffffffffffffffffffffffffffffffffff168152602001908152602001600020600083815260200190815260200160002054905092915050565b61082783838360405180602001604052806000815250610b49565b505050565b61083d610837610d9a565b82610f0a565b61087c576040517f08c379a000000000000000000000000000000000000000000000000000000000815260040161087390612e82565b60405180910390fd5b61088581611206565b50565b60006108926106fa565b82106108d3576040517f08c379a00000000000000000000000000000000000000000000000000000000081526004016108ca90612fa6565b60405180910390fd5b600882815481106108e7576108e6612cf7565b5b90600052602060002001549050919050565b6000806002600084815260200190815260200160002060009054906101000a900473ffffffffffffffffffffffffffffffffffffffff169050600073ffffffffffffffffffffffffffffffffffffffff168173ffffffffffffffffffffffffffffffffffffffff1614156109a2576040517f08c379a000000000000000000000000000000000000000000000000000000000815260040161099990613012565b60405180910390fd5b80915050919050565b60008073ffffffffffffffffffffffffffffffffffffffff168273ffffffffffffffffffffffffffffffffffffffff161415610a1c576040517f08c379a0000000000000000000000000000000000000000000000000000000008152600401610a13906130a4565b60405180910390fd5b600360008373ffffffffffffffffffffffffffffffffffffffff1673ffffffffffffffffffffffffffffffffffffffff168152602001908152602001600020549050919050565b610a6b610e5b565b610a756000611212565b565b6000600b60009054906101000a900473ffffffffffffffffffffffffffffffffffffffff16905090565b606060018054610ab090612ba1565b80601f0160208091040260200160405190810160405280929190818152602001828054610adc90612ba1565b8015610b295780601f10610afe57610100808354040283529160200191610b29565b820191906000526020600020905b815481529060010190602001808311610b0c57829003601f168201915b5050505050905090565b610b45610b3e610d9a565b83836112d8565b5050565b610b5a610b54610d9a565b83610f0a565b610b99576040517f08c379a0000000000000000000000000000000000000000000000000000000008152600401610b9090612e82565b60405180910390fd5b610ba584848484611445565b50505050565b6060610bb6826114a1565b9050919050565b6000600560008473ffffffffffffffffffffffffffffffffffffffff1673ffffffffffffffffffffffffffffffffffffffff16815260200190815260200160002060008373ffffffffffffffffffffffffffffffffffffffff1673ffffffffffffffffffffffffffffffffffffffff16815260200190815260200160002060009054906101000a900460ff16905092915050565b610c59610e5b565b600073ffffffffffffffffffffffffffffffffffffffff168173ffffffffffffffffffffffffffffffffffffffff161415610cc9576040517f08c379a0000000000000000000000000000000000000000000000000000000008152600401610cc090613136565b60405180910390fd5b610cd281611212565b50565b60007f780e9d63000000000000000000000000000000000000000000000000000000007bffffffffffffffffffffffffffffffffffffffffffffffffffffffff1916827bffffffffffffffffffffffffffffffffffffffffffffffffffffffff19161480610d485750610d47826115b4565b5b9050919050565b610d5881611696565b610d97576040517f08c379a0000000000000000000000000000000000000000000000000000000008152600401610d8e90613012565b60405180910390fd5b50565b600033905090565b816004600083815260200190815260200160002060006101000a81548173ffffffffffffffffffffffffffffffffffffffff021916908373ffffffffffffffffffffffffffffffffffffffff160217905550808273ffffffffffffffffffffffffffffffffffffffff16610e15836108f9565b73ffffffffffffffffffffffffffffffffffffffff167f8c5be1e5ebec7d5bd14f71427d1e84f3dd0314c0f7b2291e5b200ac8c7c3b92560405160405180910390a45050565b610e63610d9a565b73ffffffffffffffffffffffffffffffffffffffff16610e81610a77565b73ffffffffffffffffffffffffffffffffffffffff1614610ed7576040517f08c379a0000000000000000000000000000000000000000000000000000000008152600401610ece906131a2565b60405180910390fd5b565b6000610ee5600c611702565b9050610ef1600c611710565b610efb8382611726565b610f058183611744565b505050565b600080610f16836108f9565b90508073ffffffffffffffffffffffffffffffffffffffff168473ffffffffffffffffffffffffffffffffffffffff161480610f585750610f578185610bbd565b5b80610f9657508373ffffffffffffffffffffffffffffffffffffffff16610f7e846104c2565b73ffffffffffffffffffffffffffffffffffffffff16145b91505092915050565b8273ffffffffffffffffffffffffffffffffffffffff16610fbf826108f9565b73ffffffffffffffffffffffffffffffffffffffff1614611015576040517f08c379a000000000000000000000000000000000000000000000000000000000815260040161100c90613234565b60405180910390fd5b600073ffffffffffffffffffffffffffffffffffffffff168273ffffffffffffffffffffffffffffffffffffffff161415611085576040517f08c379a000000000000000000000000000000000000000000000000000000000815260040161107c906132c6565b60405180910390fd5b6110908383836117b8565b61109b600082610da2565b6001600360008573ffffffffffffffffffffffffffffffffffffffff1673ffffffffffffffffffffffffffffffffffffffff16815260200190815260200160002060008282546110eb91906132e6565b925050819055506001600360008473ffffffffffffffffffffffffffffffffffffffff1673ffffffffffffffffffffffffffffffffffffffff1681526020019081526020016000206000828254611142919061331a565b92505081905550816002600083815260200190815260200160002060006101000a81548173ffffffffffffffffffffffffffffffffffffffff021916908373ffffffffffffffffffffffffffffffffffffffff160217905550808273ffffffffffffffffffffffffffffffffffffffff168473ffffffffffffffffffffffffffffffffffffffff167fddf252ad1be2c89b69c2b068fc378daa952ba7f163c4a11628f55a4df523b3ef60405160405180910390a46112018383836117c8565b505050565b61120f816117cd565b50565b6000600b60009054906101000a900473ffffffffffffffffffffffffffffffffffffffff16905081600b60006101000a81548173ffffffffffffffffffffffffffffffffffffffff021916908373ffffffffffffffffffffffffffffffffffffffff1602179055508173ffffffffffffffffffffffffffffffffffffffff168173ffffffffffffffffffffffffffffffffffffffff167f8be0079c531659141344cd1fd0a4f28419497f9722a3daafe3b4186f6b6457e060405160405180910390a35050565b8173ffffffffffffffffffffffffffffffffffffffff168373ffffffffffffffffffffffffffffffffffffffff161415611347576040517f08c379a000000000000000000000000000000000000000000000000000000000815260040161133e906133bc565b60405180910390fd5b80600560008573ffffffffffffffffffffffffffffffffffffffff1673ffffffffffffffffffffffffffffffffffffffff16815260200190815260200160002060008473ffffffffffffffffffffffffffffffffffffffff1673ffffffffffffffffffffffffffffffffffffffff16815260200190815260200160002060006101000a81548160ff0219169083151502179055508173ffffffffffffffffffffffffffffffffffffffff168373ffffffffffffffffffffffffffffffffffffffff167f17307eab39ab6107e8899845ad3d59bd9653f200f220920489ca2b5937696c3183604051611438919061252c565b60405180910390a3505050565b611450848484610f9f565b61145c84848484611820565b61149b576040517f08c379a00000000000000000000000000000000000000000000000000000000081526004016114929061344e565b60405180910390fd5b50505050565b60606114ac82610d4f565b6000600a600084815260200190815260200160002080546114cc90612ba1565b80601f01602080910402602001604051908101604052809291908181526020018280546114f890612ba1565b80156115455780601f1061151a57610100808354040283529160200191611545565b820191906000526020600020905b81548152906001019060200180831161152857829003601f168201915b5050505050905060006115566119b7565b905060008151141561156c5781925050506115af565b6000825111156115a15780826040516020016115899291906134aa565b604051602081830303815290604052925050506115af565b6115aa846119ce565b925050505b919050565b60007f80ac58cd000000000000000000000000000000000000000000000000000000007bffffffffffffffffffffffffffffffffffffffffffffffffffffffff1916827bffffffffffffffffffffffffffffffffffffffffffffffffffffffff1916148061167f57507f5b5e139f000000000000000000000000000000000000000000000000000000007bffffffffffffffffffffffffffffffffffffffffffffffffffffffff1916827bffffffffffffffffffffffffffffffffffffffffffffffffffffffff1916145b8061168f575061168e82611a36565b5b9050919050565b60008073ffffffffffffffffffffffffffffffffffffffff166002600084815260200190815260200160002060009054906101000a900473ffffffffffffffffffffffffffffffffffffffff1673ffffffffffffffffffffffffffffffffffffffff1614159050919050565b600081600001549050919050565b6001816000016000828254019250508190555050565b611740828260405180602001604052806000815250611aa0565b5050565b61174d82611696565b61178c576040517f08c379a000000000000000000000000000000000000000000000000000000000815260040161178390613540565b60405180910390fd5b80600a600084815260200190815260200160002090805190602001906117b3929190612395565b505050565b6117c3838383611afb565b505050565b505050565b6117d681611c0f565b6000600a600083815260200190815260200160002080546117f690612ba1565b90501461181d57600a6000828152602001908152602001600020600061181c919061241b565b5b50565b60006118418473ffffffffffffffffffffffffffffffffffffffff16611d2c565b156119aa578373ffffffffffffffffffffffffffffffffffffffff1663150b7a0261186a610d9a565b8786866040518563ffffffff1660e01b815260040161188c94939291906135b5565b602060405180830381600087803b1580156118a657600080fd5b505af19250505080156118d757506040513d601f19601f820116820180604052508101906118d49190613616565b60015b61195a573d8060008114611907576040519150601f19603f3d011682016040523d82523d6000602084013e61190c565b606091505b50600081511415611952576040517f08c379a00000000000000000000000000000000000000000000000000000000081526004016119499061344e565b60405180910390fd5b805181602001fd5b63150b7a0260e01b7bffffffffffffffffffffffffffffffffffffffffffffffffffffffff1916817bffffffffffffffffffffffffffffffffffffffffffffffffffffffff1916149150506119af565b600190505b949350505050565b606060405180602001604052806000815250905090565b60606119d982610d4f565b60006119e36119b7565b90506000815111611a035760405180602001604052806000815250611a2e565b80611a0d84611d4f565b604051602001611a1e9291906134aa565b6040516020818303038152906040525b915050919050565b60007f01ffc9a7000000000000000000000000000000000000000000000000000000007bffffffffffffffffffffffffffffffffffffffffffffffffffffffff1916827bffffffffffffffffffffffffffffffffffffffffffffffffffffffff1916149050919050565b611aaa8383611eb0565b611ab76000848484611820565b611af6576040517f08c379a0000000000000000000000000000000000000000000000000000000008152600401611aed9061344e565b60405180910390fd5b505050565b611b0683838361208a565b600073ffffffffffffffffffffffffffffffffffffffff168373ffffffffffffffffffffffffffffffffffffffff161415611b4957611b448161208f565b611b88565b8173ffffffffffffffffffffffffffffffffffffffff168373ffffffffffffffffffffffffffffffffffffffff1614611b8757611b8683826120d8565b5b5b600073ffffffffffffffffffffffffffffffffffffffff168273ffffffffffffffffffffffffffffffffffffffff161415611bcb57611bc681612245565b611c0a565b8273ffffffffffffffffffffffffffffffffffffffff168273ffffffffffffffffffffffffffffffffffffffff1614611c0957611c088282612316565b5b5b505050565b6000611c1a826108f9565b9050611c28816000846117b8565b611c33600083610da2565b6001600360008373ffffffffffffffffffffffffffffffffffffffff1673ffffffffffffffffffffffffffffffffffffffff1681526020019081526020016000206000828254611c8391906132e6565b925050819055506002600083815260200190815260200160002060006101000a81549073ffffffffffffffffffffffffffffffffffffffff021916905581600073ffffffffffffffffffffffffffffffffffffffff168273ffffffffffffffffffffffffffffffffffffffff167fddf252ad1be2c89b69c2b068fc378daa952ba7f163c4a11628f55a4df523b3ef60405160405180910390a4611d28816000846117c8565b5050565b6000808273ffffffffffffffffffffffffffffffffffffffff163b119050919050565b60606000821415611d97576040518060400160405280600181526020017f30000000000000000000000000000000000000000000000000000000000000008152509050611eab565b600082905060005b60008214611dc9578080611db290612dc7565b915050600a82611dc29190613672565b9150611d9f565b60008167ffffffffffffffff811115611de557611de4612984565b5b6040519080825280601f01601f191660200182016040528015611e175781602001600182028036833780820191505090505b5090505b60008514611ea457600182611e3091906132e6565b9150600a85611e3f91906136a3565b6030611e4b919061331a565b60f81b818381518110611e6157611e60612cf7565b5b60200101907effffffffffffffffffffffffffffffffffffffffffffffffffffffffffffff1916908160001a905350600a85611e9d9190613672565b9450611e1b565b8093505050505b919050565b600073ffffffffffffffffffffffffffffffffffffffff168273ffffffffffffffffffffffffffffffffffffffff161415611f20576040517f08c379a0000000000000000000000000000000000000000000000000000000008152600401611f1790613720565b60405180910390fd5b611f2981611696565b15611f69576040517f08c379a0000000000000000000000000000000000000000000000000000000008152600401611f609061378c565b60405180910390fd5b611f75600083836117b8565b6001600360008473ffffffffffffffffffffffffffffffffffffffff1673ffffffffffffffffffffffffffffffffffffffff1681526020019081526020016000206000828254611fc5919061331a565b92505081905550816002600083815260200190815260200160002060006101000a81548173ffffffffffffffffffffffffffffffffffffffff021916908373ffffffffffffffffffffffffffffffffffffffff160217905550808273ffffffffffffffffffffffffffffffffffffffff16600073ffffffffffffffffffffffffffffffffffffffff167fddf252ad1be2c89b69c2b068fc378daa952ba7f163c4a11628f55a4df523b3ef60405160405180910390a4612086600083836117c8565b5050565b505050565b6008805490506009600083815260200190815260200160002081905550600881908060018154018082558091505060019003906000526020600020016000909190919091505550565b600060016120e5846109ab565b6120ef91906132e6565b90506000600760008481526020019081526020016000205490508181146121d4576000600660008673ffffffffffffffffffffffffffffffffffffffff1673ffffffffffffffffffffffffffffffffffffffff168152602001908152602001600020600084815260200190815260200160002054905080600660008773ffffffffffffffffffffffffffffffffffffffff1673ffffffffffffffffffffffffffffffffffffffff168152602001908152602001600020600084815260200190815260200160002081905550816007600083815260200190815260200160002081905550505b6007600084815260200190815260200160002060009055600660008573ffffffffffffffffffffffffffffffffffffffff1673ffffffffffffffffffffffffffffffffffffffff16815260200190815260200160002060008381526020019081526020016000206000905550505050565b6000600160088054905061225991906132e6565b905060006009600084815260200190815260200160002054905060006008838154811061228957612288612cf7565b5b9060005260206000200154905080600883815481106122ab576122aa612cf7565b5b9060005260206000200181905550816009600083815260200190815260200160002081905550600960008581526020019081526020016000206000905560088054806122fa576122f96137ac565b5b6001900381819060005260206000200160009055905550505050565b6000612321836109ab565b905081600660008573ffffffffffffffffffffffffffffffffffffffff1673ffffffffffffffffffffffffffffffffffffffff168152602001908152602001600020600083815260200190815260200160002081905550806007600084815260200190815260200160002081905550505050565b8280546123a190612ba1565b90600052602060002090601f0160209004810192826123c3576000855561240a565b82601f106123dc57805160ff191683800117855561240a565b8280016001018555821561240a579182015b828111156124095782518255916020019190600101906123ee565b5b509050612417919061245b565b5090565b50805461242790612ba1565b6000825580601f106124395750612458565b601f016020900490600052602060002090810190612457919061245b565b5b50565b5b8082111561247457600081600090555060010161245c565b5090565b6000604051905090565b600080fd5b600080fd5b60007fffffffff0000000000000000000000000000000000000000000000000000000082169050919050565b6124c18161248c565b81146124cc57600080fd5b50565b6000813590506124de816124b8565b92915050565b6000602082840312156124fa576124f9612482565b5b6000612508848285016124cf565b91505092915050565b60008115159050919050565b61252681612511565b82525050565b6000602082019050612541600083018461251d565b92915050565b600081519050919050565b600082825260208201905092915050565b60005b83811015612581578082015181840152602081019050612566565b83811115612590576000848401525b50505050565b6000601f19601f8301169050919050565b60006125b282612547565b6125bc8185612552565b93506125cc818560208601612563565b6125d581612596565b840191505092915050565b600060208201905081810360008301526125fa81846125a7565b905092915050565b6000819050919050565b61261581612602565b811461262057600080fd5b50565b6000813590506126328161260c565b92915050565b60006020828403121561264e5761264d612482565b5b600061265c84828501612623565b91505092915050565b600073ffffffffffffffffffffffffffffffffffffffff82169050919050565b600061269082612665565b9050919050565b6126a081612685565b82525050565b60006020820190506126bb6000830184612697565b92915050565b6126ca81612685565b81146126d557600080fd5b50565b6000813590506126e7816126c1565b92915050565b6000806040838503121561270457612703612482565b5b6000612712858286016126d8565b925050602061272385828601612623565b9150509250929050565b600080fd5b600080fd5b600080fd5b60008083601f8401126127525761275161272d565b5b8235905067ffffffffffffffff81111561276f5761276e612732565b5b60208301915083602082028301111561278b5761278a612737565b5b9250929050565b60008083601f8401126127a8576127a761272d565b5b8235905067ffffffffffffffff8111156127c5576127c4612732565b5b6020830191508360208202830111156127e1576127e0612737565b5b9250929050565b6000806000806040858703121561280257612801612482565b5b600085013567ffffffffffffffff8111156128205761281f612487565b5b61282c8782880161273c565b9450945050602085013567ffffffffffffffff81111561284f5761284e612487565b5b61285b87828801612792565b925092505092959194509250565b61287281612602565b82525050565b600060208201905061288d6000830184612869565b92915050565b6000806000606084860312156128ac576128ab612482565b5b60006128ba868287016126d8565b93505060206128cb868287016126d8565b92505060406128dc86828701612623565b9150509250925092565b6000602082840312156128fc576128fb612482565b5b600061290a848285016126d8565b91505092915050565b61291c81612511565b811461292757600080fd5b50565b60008135905061293981612913565b92915050565b6000806040838503121561295657612955612482565b5b6000612964858286016126d8565b92505060206129758582860161292a565b9150509250929050565b600080fd5b7f4e487b7100000000000000000000000000000000000000000000000000000000600052604160045260246000fd5b6129bc82612596565b810181811067ffffffffffffffff821117156129db576129da612984565b5b80604052505050565b60006129ee612478565b90506129fa82826129b3565b919050565b600067ffffffffffffffff821115612a1a57612a19612984565b5b612a2382612596565b9050602081019050919050565b82818337600083830152505050565b6000612a52612a4d846129ff565b6129e4565b905082815260208101848484011115612a6e57612a6d61297f565b5b612a79848285612a30565b509392505050565b600082601f830112612a9657612a9561272d565b5b8135612aa6848260208601612a3f565b91505092915050565b60008060008060808587031215612ac957612ac8612482565b5b6000612ad7878288016126d8565b9450506020612ae8878288016126d8565b9350506040612af987828801612623565b925050606085013567ffffffffffffffff811115612b1a57612b19612487565b5b612b2687828801612a81565b91505092959194509250565b60008060408385031215612b4957612b48612482565b5b6000612b57858286016126d8565b9250506020612b68858286016126d8565b9150509250929050565b7f4e487b7100000000000000000000000000000000000000000000000000000000600052602260045260246000fd5b60006002820490506001821680612bb957607f821691505b60208210811415612bcd57612bcc612b72565b5b50919050565b7f4552433732313a20617070726f76616c20746f2063757272656e74206f776e6560008201527f7200000000000000000000000000000000000000000000000000000000000000602082015250565b6000612c2f602183612552565b9150612c3a82612bd3565b604082019050919050565b60006020820190508181036000830152612c5e81612c22565b9050919050565b7f4552433732313a20617070726f76652063616c6c6572206973206e6f7420746f60008201527f6b656e206f776e6572206e6f7220617070726f76656420666f7220616c6c0000602082015250565b6000612cc1603e83612552565b9150612ccc82612c65565b604082019050919050565b60006020820190508181036000830152612cf081612cb4565b9050919050565b7f4e487b7100000000000000000000000000000000000000000000000000000000600052603260045260246000fd5b600080fd5b600080fd5b600080fd5b60008083356001602003843603038112612d5257612d51612d26565b5b80840192508235915067ffffffffffffffff821115612d7457612d73612d2b565b5b602083019250600182023603831315612d9057612d8f612d30565b5b509250929050565b7f4e487b7100000000000000000000000000000000000000000000000000000000600052601160045260246000fd5b6000612dd282612602565b91507fffffffffffffffffffffffffffffffffffffffffffffffffffffffffffffffff821415612e0557612e04612d98565b5b600182019050919050565b7f4552433732313a2063616c6c6572206973206e6f7420746f6b656e206f776e6560008201527f72206e6f7220617070726f766564000000000000000000000000000000000000602082015250565b6000612e6c602e83612552565b9150612e7782612e10565b604082019050919050565b60006020820190508181036000830152612e9b81612e5f565b9050919050565b7f455243373231456e756d657261626c653a206f776e657220696e646578206f7560008201527f74206f6620626f756e6473000000000000000000000000000000000000000000602082015250565b6000612efe602b83612552565b9150612f0982612ea2565b604082019050919050565b60006020820190508181036000830152612f2d81612ef1565b9050919050565b7f455243373231456e756d657261626c653a20676c6f62616c20696e646578206f60008201527f7574206f6620626f756e64730000000000000000000000000000000000000000602082015250565b6000612f90602c83612552565b9150612f9b82612f34565b604082019050919050565b60006020820190508181036000830152612fbf81612f83565b9050919050565b7f4552433732313a20696e76616c696420746f6b656e2049440000000000000000600082015250565b6000612ffc601883612552565b915061300782612fc6565b602082019050919050565b6000602082019050818103600083015261302b81612fef565b9050919050565b7f4552433732313a2061646472657373207a65726f206973206e6f74206120766160008201527f6c6964206f776e65720000000000000000000000000000000000000000000000602082015250565b600061308e602983612552565b915061309982613032565b604082019050919050565b600060208201905081810360008301526130bd81613081565b9050919050565b7f4f776e61626c653a206e6577206f776e657220697320746865207a65726f206160008201527f6464726573730000000000000000000000000000000000000000000000000000602082015250565b6000613120602683612552565b915061312b826130c4565b604082019050919050565b6000602082019050818103600083015261314f81613113565b9050919050565b7f4f776e61626c653a2063616c6c6572206973206e6f7420746865206f776e6572600082015250565b600061318c602083612552565b915061319782613156565b602082019050919050565b600060208201905081810360008301526131bb8161317f565b9050919050565b7f4552433732313a207472616e736665722066726f6d20696e636f72726563742060008201527f6f776e6572000000000000000000000000000000000000000000000000000000602082015250565b600061321e602583612552565b9150613229826131c2565b604082019050919050565b6000602082019050818103600083015261324d81613211565b9050919050565b7f4552433732313a207472616e7366657220746f20746865207a65726f2061646460008201527f7265737300000000000000000000000000000000000000000000000000000000602082015250565b60006132b0602483612552565b91506132bb82613254565b604082019050919050565b600060208201905081810360008301526132df816132a3565b9050919050565b60006132f182612602565b91506132fc83612602565b92508282101561330f5761330e612d98565b5b828203905092915050565b600061332582612602565b915061333083612602565b9250827fffffffffffffffffffffffffffffffffffffffffffffffffffffffffffffffff0382111561336557613364612d98565b5b828201905092915050565b7f4552433732313a20617070726f766520746f2063616c6c657200000000000000600082015250565b60006133a6601983612552565b91506133b182613370565b602082019050919050565b600060208201905081810360008301526133d581613399565b9050919050565b7f4552433732313a207472616e7366657220746f206e6f6e20455243373231526560008201527f63656976657220696d706c656d656e7465720000000000000000000000000000602082015250565b6000613438603283612552565b9150613443826133dc565b604082019050919050565b600060208201905081810360008301526134678161342b565b9050919050565b600081905092915050565b600061348482612547565b61348e818561346e565b935061349e818560208601612563565b80840191505092915050565b60006134b68285613479565b91506134c28284613479565b91508190509392505050565b7f45524337323155524953746f726167653a2055524920736574206f66206e6f6e60008201527f6578697374656e7420746f6b656e000000000000000000000000000000000000602082015250565b600061352a602e83612552565b9150613535826134ce565b604082019050919050565b600060208201905081810360008301526135598161351d565b9050919050565b600081519050919050565b600082825260208201905092915050565b600061358782613560565b613591818561356b565b93506135a1818560208601612563565b6135aa81612596565b840191505092915050565b60006080820190506135ca6000830187612697565b6135d76020830186612697565b6135e46040830185612869565b81810360608301526135f6818461357c565b905095945050505050565b600081519050613610816124b8565b92915050565b60006020828403121561362c5761362b612482565b5b600061363a84828501613601565b91505092915050565b7f4e487b7100000000000000000000000000000000000000000000000000000000600052601260045260246000fd5b600061367d82612602565b915061368883612602565b92508261369857613697613643565b5b828204905092915050565b60006136ae82612602565b91506136b983612602565b9250826136c9576136c8613643565b5b828206905092915050565b7f4552433732313a206d696e7420746f20746865207a65726f2061646472657373600082015250565b600061370a602083612552565b9150613715826136d4565b602082019050919050565b60006020820190508181036000830152613739816136fd565b9050919050565b7f4552433732313a20746f6b656e20616c7265616479206d696e74656400000000600082015250565b6000613776601c83612552565b915061378182613740565b602082019050919050565b600060208201905081810360008301526137a581613769565b9050919050565b7f4e487b7100000000000000000000000000000000000000000000000000000000600052603160045260246000fdfea2646970667358221220e636f6032b8ad4746fb743905b303f9a2bbe0feb37681b1d74af13773be1dccb64736f6c63430008090033",
  "linkReferences": {},
  "deployedLinkReferences": {}
}